:020000040800F2
:10000000C026002045010008574F0008792B000842
:10001000534F0008A31F0008BD7100080000000036
:1000200000000000000000000000000075630008F0
:10003000E521000800000000815F000861640008FD
:100040005F0100085F0100085F0100085F01000810
:100050005F0100085F0100085F0100080D23000830
:100060005F0100085F0100085F0100085F010008F0
:100070005F0100085F0100085F0100085F010008E0
:100080005F0100085F0100085F0100085F010008D0
:100090005F0100085F0100085F0100085F010008C0
:1000A0005F0100085F0100085F0100085F010008B0
:1000B0005F0100085F0100085F0100085F010008A0
:1000C0005F0100085F0100085F0100085F01000890
:1000D0005F0100085F0100085F0100085F01000880
:1000E000512200085F0100085F0100085F0100085D
:1000F0005F0100085F0100085F0100085F01000860
:100100005F0100085F0100085F0100085F0100084F
:100110005F0100085F010008A96700085F0100088F
:100120005F0100085F0100085F0100085F0100082F
:10013000DFF80CD000F014FD00480047B1A3000820
:10014000C02600200648804706480047FEE7FEE735
:10015000FEE7FEE7FEE7FEE7FEE7FEE7FEE7FEE777
:10016000E564000831010008F0B480EA0102D40F10
:100170004200B2EB410F02D20246084611464A0045
:1001800042D0C30DDDB2C1F3C752AD1A202D35DA0E
:10019000C1F3160141F4000204B15242C5F1200638
:1001A00002FA06F12A411044B3EBD05F23D0C4B168
:1001B000012DA0EBC35009DCF0BC4FF0004202EA75
:1001C000C352DBB200F5000000F08FBB400000F12D
:1001D000807000EBC350A0F1807040EAD1704900FC
:1001E00009E0490841EAC071A0EBC35000F50000E6
:1001F000400800EBC350F0BC00F06EBB614201222E
:1002000002EB4101001BF6E7F0BC704781F00041B2
:10021000AAE780F00040A7E780EA010210B502F0EB
:100220000043400022D04A001FD0010E01EB1261B2
:10023000C0F35600C2F3560240F4000042F400023C
:10024000A0FB022000047F39140400D0401C50EAB7
:10025000124001D44000491EC2B20C0604EBD0107B
:10026000401C4008802A02D003E0002010BD20F08E
:100270000100002900DA0020184310BD30B480EAE4
:10028000010202F0004530F0004221F0004013D09E
:1002900090B1C30DD40DC2F31601C0F31600E41AD9
:1002A00041F4000140F400027D34914201D3641C0A
:1002B00000E04900002C02DA30BC002070474FF407
:1002C00000000023914201D3891A034340084FEAFA
:1002D0004101F7D151B1914202D14FF0004105E007
:1002E00002D24FF0010101E06FF0010103EBC450B5
:1002F000284430BC00F0F0BA2DE9FE4F804681EA78
:100300000300C00F0C46009021F0004123F000458F
:10031000B8EB0200A94105D24046214690461C4652
:100320000B46024623F00040104347D0270DC7F389
:100330000A00C3F30A510290401A019040286BDA78
:10034000C3F3130040F4801B0098924620B10023B1
:10035000D2EB030A63EB0B0B01985946C0F1400244
:10036000504600F088FA06460D4650465946019A16
:1003700000F0A0FA10EB08006141002487EA115256
:1003800084EAE7731A4340D0009A62B3019A012AC3
:100390004FEA075215DC001B61EB02014FF00042EF
:1003A00002EA0752CDE90042001C41F580113246B5
:1003B0002B4600F006FB03B0BDE8F08F4046214617
:1003C000F9E7001B61EB0201001C41F580130018E6
:1003D0005B412018A2F5001747EB030140EAD570F6
:1003E000B6196D4111E06D084FEA360645EAC07551
:1003F0004FEA0752001B61EB0201001C41F580111E
:1004000049084FEA30000019514132462B4603B0EB
:10041000BDE8F04F00F0C6BA00980122400000236A
:10042000D0EB020263EBE073009821464FEAE074E0
:10043000B8EB000061EB0401E9E783F000435BE700
:1004400081F0004158E72DE9FE4F81EA030404F0F2
:10045000004421F0004100944FF0000B23F00043D2
:1004600050EA01045ED052EA03045BD0C3F30A549D
:10047000C1F30A552C44A4F2F3340194A0FB0254B6
:10048000C1F3130141F48011C3F3130343F4801348
:1004900001FB024400FB034E840A970A44EA81549C
:1004A00047EA8357A4FB076802958D0A05FB078579
:1004B0004FEA932C04FB0C542705029D4FEA065883
:1004C00047EA1637B5EB08056EEB070C870E920E60
:1004D00047EA811742EA8312A7FB0201B6EB0B0140
:1004E00064EB00042B0D43EA0C335E1844EB1C5004
:1004F000DA465146E7FB0201C5F313044FEA0B331A
:1005000043EA14534FEA0432019C43EA0603A4F180
:100510000C040294009CCDE900B400F052FA03B040
:10052000BDE8F08F00200146F9E72DE9F04D81EAA2
:10053000030404F0004B21F0004514464FF0000A7C
:1005400023F0004150EA050220D054EA01021DD0F8
:10055000C5F30A570246C5F31303C1F31300C1F3F1
:100560000A5640F4801543F48013A7EB0608101BCD
:10057000D64608F2FD3873EB050002D308F10108F6
:1005800001E092185B41B8F1000F03DA0020014648
:10059000BDE8F08D00204FF48011064684460EE041
:1005A000171B73EB050705D3121B63EB050306430B
:1005B0004CEA010C49084FEA300092185B4150EABE
:1005C0000107EDD152EA030012D082EA040083EA67
:1005D0000501084305D0101BAB4106D201220023C0
:1005E00006E000224FF0004302E06FF001025310DA
:1005F0001AEB06004CEB085110EB0A0041EB0B0123
:10060000BDE8F04D00F0CEB9C10F80EAE0700844BB
:10061000CA079623002100F068B9962300221146EC
:1006200000F063B90EB5C10F80EAE0700844CA0754
:10063000002140F233438DE80E000A460B4600F0DD
:10064000C0F903B000BD0EB540F233410291002164
:10065000CDE900110A460B4600F0B3F903B000BD26
:1006600000F0004220F00040C10DC0F3160040F43D
:1006700000007F2901DA00207047962903DCC1F1D0
:100680009601C84001E096398840002AF4D04042E3
:10069000704770B5C1F30A5201F000450024C1F360
:1006A000130140F2FF3341F480119A4201DA002035
:1006B00070BD40F233439A42A2F2334203DC52420D
:1006C00000F0E8F800E090402C43F1D0404270BDCB
:1006D000C1F30A5210B5C1F3130140F2FF3341F4E4
:1006E00080119A4201DA002010BD40F233439A4251
:1006F000A2F2334203DC524200F0CCF810BD90402D
:1007000010BD00F0004230F000400AD0C10D01F5EC
:100710006071C0F3160042EA0151C208400711435C
:10072000704700200146704730B5041E71F1000487
:1007300004DB4FF00044404264EB0101141E73F1EE
:10074000000405DB1C464FF00043524263EB0403F8
:100750008B4208BF824230BD30B5041E71F10004E7
:1007600004DB4FF00044404264EB0101141E73F1BE
:10077000000405DB1C464FF00043524263EB0403C8
:10078000994208BF904230BD01F0004330B421F0DF
:10079000004150EA010206D00A0DA2F56072C1F3D1
:1007A0001301002A02DC30BC00207047440F44EAE9
:1007B000C104C100E01830BC00EBC25000F08CB89E
:1007C000002801DBC0F10040002901DBC1F100413C
:1007D00081427047002801DBC0F10040002901DBA5
:1007E000C1F100418842704730B50B4601460020F8
:1007F0002022012409E021FA02F59D4205D303FAE3
:1008000002F5491B04FA02F52844151EA2F1010263
:10081000F1DC30BD2DE9F05F0546002092469B4695
:1008200088460646814640241BE028464146474606
:10083000224600F02FF853465A46C01A914110D371
:1008400011461846224600F016F82D1A67EB0108EB
:100850004F4622460120002100F00DF817EB000959
:100860004E41201EA4F10104DFDC484631462A46F1
:100870004346BDE8F09F202A04DB203A00FA02F14B
:10088000002070479140C2F1200320FA03F319437E
:1008900090407047202A04DB203A21FA02F0002120
:1008A000704721FA02F3D040C2F120029140084380
:1008B00019467047202A06DBCB17203A41FA02F08E
:1008C00043EAE07306E041FA02F3D040C2F12002AD
:1008D00091400843194670470029A8BF7047401C43
:1008E000490008BF20F00100704710B4B0FA80FC46
:1008F00000FA0CF050EA010404BF10BC704749B183
:10090000CCF1200421FA04F411FA0CF118BF0121F2
:1009100021430843A3EB0C01CB1D4FEA00614FEAD2
:10092000102042BF002010BC704700EBC3501044A1
:100930000029A4BF10BC7047401C490008BF20F02C
:10094000010010BC7047F0B4002802DCF0BC0020AD
:100950007047C0F3C751C0F3160040F40000CA0747
:1009600001D14000491E3F2202EB610500221146E1
:100970004FF4000626FA01F31344D418844201D838
:10098000001B1A464000491C1729F3DD5100814223
:1009900002D24FF0FF3100E0002102EBC550F0BC65
:1009A000FFF79ABF10B5141E73F1000408DA401C5B
:1009B00041F1000192185B411A4301D120F001007E
:1009C00010BD2DE9F04D92469B4611B1B1FA81F26E
:1009D00002E0B0FA80F220329046FFF74CFF044666
:1009E0000F4640EA0A0041EA0B0153465A460843C3
:1009F00013D0114653EA010019D0C8F14002504605
:100A0000FFF748FF05460E46504659464246FFF757
:100A100032FF084305D0012004E020463946BDE8F6
:100A2000F08D0020054346EAE0762C4337430A98D0
:100A30006305E40AA0EB08000022FD0A44EA4754DB
:100A40000A3002D500200146E9E701051019694185
:100A5000DDE9084500196941BDE8F04DA2E770B530
:100A600021F0004303430CD0C1F30A550024D5EB19
:100A7000040564EB0403D617AD1AB34102DB002072
:100A8000014670BD201841EB025170BD2DE9F04DBB
:100A900000231A461B1A8A4103DB00200146BDE8E9
:100AA000F08DC1F30A52C1F3130141F480154FF0E8
:100AB000000BD10702D100186D41521E00270446D9
:100AC00040F2FF11384601EB620A3E46804602467C
:100AD00000204FF48011FFF7DDFEC2197141BB18F1
:100AE00046EB0100B4EB030C75EB000C04D3E41AE5
:100AF00065EB000517460E46241908F101006D410B
:100B000080463428E3DDF91946EB0600091BA841AD
:100B100003D24FF0FF32134601E0002213461BEBD5
:100B2000070046EB0A51BDE8F04DFFF73BBFC1F3AC
:100B30000A52C1F3130140F2FF3341F480119A428B
:100B400002DA00200146704740F233439A42A2F293
:100B5000334202DC5242FFF79DBEFFF78CBE00001D
:100B6000064C074D06E0E06840F0010394E80700FA
:100B700098471034AC42F6D3FFF7DEFA78B5000898
:100B800098B5000870B58C1810F8015B15F00703D4
:100B900001D110F8013B2A1106D110F8012B03E016
:100BA00010F8016B01F8016B5B1EF9D12B0705D41E
:100BB0000023521E0DD401F8013BFAE710F8013B67
:100BC000CB1A921C03E013F8015B01F8015B521E83
:100BD000F9D5A142D8D3002070BD000008B501218D
:100BE000084605F0DBF901214FF4047005F006FA20
:100BF0002020ADF8000000208DF80300694602486F
:100C000001F0C0FE08BD00000010014010B5FFF764
:100C1000E5FF00F001F810BD00B591B0334801F0D8
:100C20001DFA3348069033480790002008900120B1
:100C3000099000200A900B904FF480700C90800077
:100C40000D9020200E9000020F900020109006A919
:100C5000264801F0A9FA0121244801F0F3F9002007
:100C600001908DF8080001208DF809004FF46020F4
:100C700003900020049001208DF8140001A91C4865
:100C80004C3800F063F84FF4404005F07BF9052341
:100C900001220F2116484C3800F080F80121144839
:100CA0004C3800F034F8012111484C3800F024F899
:100CB0000F484C3800F0CEF800BF0D484C3800F01B
:100CC0003BF80028F9D10A484C3800F0D3F800BFAF
:100CD00007484C3800F026F80028F9D101210448D3
:100CE0004C3800F0BCF811B000BD00000800024014
:100CF0004C240140840A002021B1826842F00102A4
:100D0000826003E0826822F001028260704721B1B4
:100D1000826842F48072826003E0826822F480720A
:100D200082607047014600208A6802F004020AB11E
:100D3000012000E000207047014600208A6802F090
:100D400008020AB1012000E00020704730B50246D9
:100D50000020002350680F4C20400D790C6844EAB5
:100D600005242043506090680B4C2040D1E9025488
:100D70002C434D7944EA450420439060D06A20F426
:100D800070000C7C641EE4B2234340EA0350D0623E
:100D900030BD0000FFFEF0FFFDF7F1FFF0B50446A7
:100DA0000D4600200021092D11DDE068A5F10A069D
:100DB00006EB4607072606FA07F18843A5F10A065F
:100DC00006EB460603FA06F10843E0600CE02069F2
:100DD00005EB4507072606FA07F1884305EB4506AC
:100DE00003FA06F108432061072A0FDA606B561EEA
:100DF00006EB86071F2606FA07F18843561E06EB08
:100E0000860605FA06F10843606322E00D2A0FDA30
:100E1000206BD61F06EB86071F2606FA07F18843CC
:100E2000D61F06EB860605FA06F10843206310E09C
:100E3000E06AA2F10D0606EB86071F2606FA07F107
:100E40008843A2F10D0606EB860605FA06F1084373
:100E5000E062F0BD816841F008018160704721B116
:100E6000826842F4A002826003E0826822F4A00259
:100E700082607047816841F0040181607047000022
:100E80000FB5B1B0FE4801680068FFF7C5F91D90C5
:100E9000FC480168FA480068FFF7BEF91C90FA4860
:100EA0000168F7480068FFF7B7F91B90F748016839
:100EB000F3480068FFF7B0F91A90F248016800683B
:100EC000FFF7AAF91990F0480168EE480068FFF7AB
:100ED000A3F91890ED480168EA480068FFF79CF90B
:100EE0001790E94801680068FFF796F91690E748FF
:100EF0000168E5480068FFF78FF91590E34801683D
:100F00000068FFF789F9149037990846FFF784F9CC
:100F1000129036990846FFF77FF9109034990846E9
:100F2000FFF77AF90F901099FFF71EF911901299B7
:100F3000FFF71AF9139009F015FA2F902F993498AA
:100F4000FFF76AF934902F993698FFF765F93690D4
:100F50002F993798FFF760F937903A990846FFF7CD
:100F60005BF9129039990846FFF756F910903899B5
:100F70000846FFF751F90F901099FFF7F5F8119017
:100F80001299FFF7F1F8139009F0ECF92F902F99CF
:100F90003898FFF741F938902F993998FFF73CF9C5
:100FA00039902F993A98FFF737F93A901B9917988B
:100FB000FFF7DAF80C904FF080403A99FFF72CF9E0
:100FC0000B900C99FFF728F90D90FFF79AFBCDE9EC
:100FD00010011A991898FFF719F908904FF08040FE
:100FE0003999FFF719F907900899FFF715F9099052
:100FF000FFF787FBCDE90C011498FFF782FBCDE9E1
:1010000004011698FFF77DFB0022A14BCDE90001FA
:10101000FFF716FACDE90201DDE90423FFF70DFA27
:10102000CDE908014FF080403899FFF7F5F80590B9
:10103000FFF767FBCDE90601DDE90823FFF703FAB7
:10104000CDE90A01DDE90C23FFF756F9CDE90E01E0
:10105000DDE91023FFF750F9CDE91201FFF794FB0A
:101060002E901C991598FFF7D1F80C904FF0804006
:101070003A99FFF7D1F80B900C99FFF7CDF80D9046
:10108000FFF73FFBCDE910011498FFF73AFBCDE9DC
:1010900004011998FFF735FB00227D4BCDE90001D3
:1010A000FFF7CEF9CDE90201DDE90423FFF7C5F929
:1010B000CDE908014FF080403999FFF7ADF8059070
:1010C000FFF71FFBCDE90601DDE90823FFF7BBF9B8
:1010D000CDE90C011A991898FFF746F808904FF0DF
:1010E00080403899FFF798F807900899FFF794F82F
:1010F0000990FFF706FBCDE90A01DDE90C23FFF7B4
:10110000FBF8CDE90E01DDE91023FFF7F5F8CDE995
:101110001201FFF739FB2D901698FFF7F2FACDE98F
:1011200008011998FFF7EDFA0022594BCDE90401A7
:10113000FFF786F9CDE90601DDE90823FFF77DF920
:10114000CDE90C014FF080403A99FFF765F809901E
:10115000FFF7D7FACDE90A01DDE90C23FFF773F9B0
:10116000CDE910011C991598FEF7FEFF0A904FF08B
:1011700080403999FFF750F809900A99FFF74CF829
:101180000C901B991798FFF741F80A904FF0804098
:101190003899FFF741F809900A99FFF73DF80B904D
:1011A0000C99FEF7E1FF0D90FFF7ABFACDE90E01C8
:1011B000DDE91023FFF7A0F8CDE91201FFF7E4FA0B
:1011C0002C902D990846FFF727F812902E99084683
:1011D000FFF722F811901299FEF7C6FF139009F05D
:1011E00099FC2A902C982B901B991798FFF70EF8D2
:1011F0004FF080411390FFF70FF8299015991C9834
:10120000FEF7B2FF4FF080411390FFF705F82890EA
:1012100019991D98FEF7FAFF12901699FEF7F6FF3E
:1012200013901499FEF7A0FF27901B991798FEF7CB
:10123000EDFF11904FF080402B99FEF7EDFF1090DD
:101240001199FEF7E9FF13901A991898FEF78CFF91
:1012500011904FF080402A99FEF7DEFF109011990F
:10126000FEF7DAFF12901399FEF77EFF269015998C
:101270001C98FEF779FF0C904FF080402B9909E005
:10128000840B0020880B00208C0B0020900B00208A
:101290000000E03FFEF7C0FF0B900C99FEF7BCFF8B
:1012A0000D90FFF72EFACDE910011498FFF729FAF7
:1012B000CDE908011998FFF724FA0022FE4BCDE989
:1012C0000401FFF7BDF8CDE90601DDE90823FFF7CA
:1012D000B4F8CDE90C014FF080402A99FEF79CFF4D
:1012E0000990FFF70EFACDE90A01DDE90C23FFF7BB
:1012F000AAF8CDE90E01DDE91023FEF7FDFFCDE9E7
:101300001201FFF741FA25901698FFF7FAF9CDE997
:1013100008011998FFF7F5F90022E74BCDE9040120
:10132000FFF78EF8CDE90601DDE90823FFF785F820
:10133000CDE90C014FF080402B99FEF76DFF09902D
:10134000FFF7DFF9CDE90A01DDE90C23FFF77BF8B0
:10135000CDE910011C991598FEF758FF0C904FF03D
:1013600080402A99FEF758FF0B900C99FEF754FF26
:101370000D90FFF7C6F9CDE90E01DDE91023FEF768
:10138000BBFFCDE91201FFF7FFF9249025993A98A8
:10139000FEF742FF119024993998FEF73DFF109017
:1013A0001199FEF733FF139028993798FEF734FF11
:1013B000119027993698FEF72FFF10901199FEF79C
:1013C00025FF12901399FEF7CFFE239024993898A9
:1013D000FEF722FF119026993A98FEF71DFF109014
:1013E0001199FEF713FF139027993498FEF714FF15
:1013F000119029993798FEF70FFF10901199FEF779
:1014000005FF12901399FEF7AFFE229026993998A6
:10141000FEF702FF119025993898FEF7FDFE109017
:101420001199FEF7F3FE139029993698FEF7F4FE12
:10143000119028993498FEF7EFFE10901199FEF75D
:10144000E5FE12901399FEF78FFE2190002123985C
:10145000FFF7B6F97DD000212298FFF7B1F9F9D056
:1014600000212198FFF7ACF9F4D094492398FEF7B6
:10147000D3FE93491290FEF7CFFE13909148016876
:101480001398FEF771FE8F4908608C492298FEF789
:10149000C3FE8B491290FEF7BFFE13908A48016885
:1014A0001398FEF761FE8849086084492198FEF789
:1014B000B3FE83491290FEF7AFFE13908348016894
:1014C0001398FEF751FE814908607E480068FFF7D7
:1014D00018F9CDE910012398FFF713F900227C4B8E
:1014E000CDE90801FEF7AFFFCDE90C013198FFF718
:1014F00008F9CDE90A01DDE90C23FEF7FDFECDE98F
:101500000E01DDE91023FEF7F7FECDE91201FFF72A
:101510003BF931906C480068FFF7F3F8CDE9100112
:101520002298FFF7EEF80022694BCDE90801FEF79B
:101530008AFFCDE90C013298FFF7E3F8CDE90A0103
:10154000DDE90C23FEF7D8FECDE90E01DDE910231D
:1015500000E02BE0FEF7D0FECDE91201FFF714F911
:1015600032905A480068FFF7CCF8CDE91001219875
:10157000FFF7C7F80022564BCDE90801FEF763FFDD
:10158000CDE90C013398FFF7BCF8CDE90A01DDE99C
:101590000C23FEF7B1FECDE90E01DDE91023FEF7C5
:1015A000ABFECDE91201FFF7EFF8339049483399CC
:1015B0000068FEF731FE1190474832990068FEF747
:1015C0002BFE0F904548006880F000400D90319947
:1015D000FEF722FE0E900F99FEF718FE109011995B
:1015E000FEF714FE36491290FEF716FE13903C48A3
:1015F00001681398FEF7B8FD3949086035483299FB
:101600000068FEF709FE1190334833990068FEF731
:1016100003FE0F90324801683198FEF7FDFD0E90F1
:101620000F99FEF7A1FD10901199FEF7EFFD2449E7
:101630001290FEF7F1FD1390284801681398FEF709
:1016400093FD26490860234801683198FEF7E4FDC0
:101650001190224833990068FEF7DEFD0F90204874
:1016600032990068FEF7D8FD0E900F99FEF7CEFD77
:1016700010901199FEF778FD11491290FEF7CCFDFC
:101680001390154801681398FEF76EFD1249086023
:10169000084601683198FEF7BFFD11900F48329956
:1016A0000068FEF7B9FD0F900D4833990068FEF70A
:1016B000B3FD0E900F9915E00000E03F52491D3A2E
:1016C0000AD7233B940B0020980B00209C0B002092
:1016D00000003040900B00208C0B0020880B002075
:1016E000840B0020FEF740FD10901199FEF78EFD4F
:1016F000A7491290FEF790FD1390A6480168139831
:10170000FEF732FDA3490860084601680068FEF74D
:1017100083FD1290A04801680068FEF77DFD1090DF
:101720009E4801680068FEF777FD0E909C480168AE
:101730000068FEF771FD0D900E99FEF715FD0F90F4
:101740001099FEF711FD11901299FEF70DFD1390FF
:1017500008F008FE2F9092482F990068FEF75CFD74
:101760008F4908608D482F990068FEF755FD8B4919
:10177000086089482F990068FEF74EFD8649086089
:1017800084482F990068FEF747FD824908600846A3
:1017900001684FF08040FEF73FFD07907D480168EB
:1017A0000798FEF739FD09907C4801684FF04040EA
:1017B000FEF732FD0790794801680798FEF72CFD87
:1017C00008900999FEF722FD4FF07E510A90FEF72E
:1017D000CBFC0B90FEF795FFCDE90E017048016838
:1017E0004FF08040FEF718FD08906A48016808989D
:1017F000FEF712FD0A90694801684FF08040FEF73D
:101800000BFD0890644801680898FEF705FD0990F3
:101810000A99FEF7FBFC0B90FEF773FFCDE90C0174
:10182000DDE90E2306F0DEFF81F000414FF0663265
:101830005C4BCDE91001FEF706FECDE91201FEF783
:10184000A3FF1E9000211E98FEF7BAFF04D256494E
:101850001E98FEF789FC1E9053491E98FEF7BAFFAA
:1018600004D251491E98FEF7D1FC1E904C480168E5
:101870004FF08040FEF7D0FC0A90474801680A9874
:10188000FEF7CAFC0C90454801684FF04040FEF757
:10189000C3FC0A903F4801680A98FEF7BDFC0B9014
:1018A0000C99FEF761FC0D90FEF72BFFCDE90E01C0
:1018B00006F050FD4FF066323A4BCDE91001FEF7CD
:1018C000C2FDCDE91201FEF75FFF209032480168AA
:1018D0004FF08040FEF7A0FC07902F480168079862
:1018E000FEF79AFC09902D4801684FF04040FEF742
:1018F00093FC0790294801680798FEF78DFC089033
:101900000999FEF783FC4FF07E510A90FEF72CFCFC
:101910000B90FEF7F6FECDE90E01214801684FF06D
:101920008040FEF779FC08901C4801680898FEF793
:1019300073FC0A90184801684FF08040FEF76CFC79
:101940000890144801680898FEF766FC09900A9907
:10195000FEF70AFC0B90FEF7D4FECDE90C01DDE9A1
:101960000E2306F03FFF4FF066320E4BCDE910011B
:10197000FEF769FDCDE91201FEF706FF1F900B4946
:101980001E9888601F9848602098086035B000BD98
:101990000AD7233B900B00208C0B0020880B0020E3
:1019A000840B002066A64C400000B4434021002078
:1019B0002DE9F04794B0814603230EAAF721EC20CD
:1019C00001F078F99DF83A0000119DF8391040EACD
:1019D00001109DF8381040EA0130E84908601223F0
:1019E0000EAA8E21EC2001F065F99DF838009DF8D3
:1019F000391040EA0120E24908809DF83A009DF83C
:101A00003B1040EA012000B2DE4908809DF83C000E
:101A10009DF83D1040EA012000B2DB4908809DF8A6
:101A20003E009DF83F1040EA012000B2D7490880EF
:101A30009DF840009DF8411040EA012000B2D449D1
:101A400008809DF842009DF8431040EA012000B252
:101A5000D04908809DF844009DF8451040EA0120D7
:101A600000B2CD4908809DF846009DF8471040EA35
:101A7000012000B2C94908809DF848009DF849102E
:101A800040EA012000B2C6490880C6480068FEF757
:101A9000C9FD074600224FF08043FEF746FD05468C
:101AA0000022C14BFEF7C9FCCDE90C01FEF7F1FDA8
:101AB0000446B848B0F90000FEF7B4FD0746884672
:101AC00004FB04F0FEF7AEFD3A464346CDE90A01B9
:101AD000FEF7B9FC05460022B44BFEF726FDCDE922
:101AE0000C01FEF7D6FD8246A948B0F90000FEF7CA
:101AF00099FDCDE906012046FEF794FD0546DDE996
:101B00000623FEF7A0FC00224FF08043CDE9080138
:101B1000FEF799FCCDE90C015046FEF783FDCDE9B7
:101B20000A01DDE90C23FEF7E7FB0746FEF7B1FDEE
:101B300082469648B0F90000FEF774FD00229C4BE7
:101B4000CDE90A01FEF77FFC05460E465046FEF73A
:101B500069FD0022974BCDE90A01FEF7E6FC074636
:101B60002A463346FEF7C8FBCDE90C01FEF791FD8E
:101B700082462046FEF756FD05460E468148B0F9DE
:101B80000000FEF74FFD07462A463346FEF75BFC92
:101B9000CDE908012046FEF745FDCDE902012046CA
:101BA000FEF740FD05460E467748B0F90000FEF707
:101BB00039FD07462A463346FEF745FCCDE90001CC
:101BC000DDE90223FEF73FFC00227B4BCDE9040157
:101BD000FEF7ABFCCDE90601DDE90823FEF78CFB3F
:101BE0000022754BCDE90A01FEF79FFCCDE90C01FF
:101BF000FEF74FFD044662480088FEF724FDCDE95C
:101C00000A012046FEF70EFD07460022674BFEF74D
:101C10008CFC05460022694BFEF76EFBCDE90801FE
:101C2000DDE90A23FEF70FFCCDE90C01FEF731FDDB
:101C3000044652480068FEF7F5FC07460022604B58
:101C4000FEF7FEFB0546FEF724FD5E4908602046D0
:101C5000FEF7E8FCCDE90A015046FEF7E3FC00225E
:101C6000594BCDE90401FEF760FC0746884655480C
:101C70000068FEF7D7FC05463A464346FEF7DDFB13
:101C80000022524BCDE90601FEF7DDFBCDE908014C
:101C9000DDE90A23FEF749FCCDE90C01FEF7F9FC6A
:101CA0004849086008460068FEF7BCFCCDE9080119
:101CB00044480068FEF7B6FC05460E463848B0F9C1
:101CC0000000FEF7AFFC2A463346CDE90601FEF7D9
:101CD000BAFB0746DDE90823FEF7B5FB00223C4BC3
:101CE000CDE90A01FEF721FCCDE90C01FEF7D1FC9C
:101CF00004462A48B0F90000FEF794FC07468846DF
:101D000030480068FEF78EFC3A464346CDE90A01AA
:101D1000FEF799FB05460022244BFEF706FCCDE9B1
:101D20000C01FEF7B6FC82461B48B0F90000FEF736
:101D300079FCCDE9080104EB0A00FEF773FCCDE95C
:101D40000601DDE90823FEF7D7FA05460022214BFC
:101D5000FEF7EBFBCDE90A011A480068FEF762FCCA
:101D60000746DDE90A23FEF7C7FACDE90C01FEF7C5
:101D700090FCC9F8000014B0BDE8F087640A0020A8
:101D80006A0A0020700A0020720A0020740A0020EB
:101D9000760A0020780A00207A0A00207C0A0020B7
:101DA0007E0A00205C0A00200040EF400000E04076
:101DB0000000F04000001040000020410000F03F13
:101DC00000003041800A00200000B040006AB840A6
:101DD0000000E041000030402DE9F0478EB004469D
:101DE00003230CAAFA21EC2000F064FF9DF83200D6
:101DF00000119DF8311040EA01109DF8301040EAC2
:101E000001305A49086006230CAA8821EC2000F012
:101E100051FF9DF830009DF8311040EA01205449EF
:101E200008809DF832009DF8331040EA012000B28E
:101E3000504908809DF834009DF8351040EA012093
:101E400000B24D4908804B48B0F90000FEF7EAFBAC
:101E5000CDE9080146480088FEF7F5FB054600225B
:101E6000464BFEF762FBCDE9040140480068FEF7EF
:101E7000D9FB05460022424BFEF757FB0746DDE93A
:101E80000423FEF7DAFACDE90601DDE90823FEF7BF
:101E9000DAFACDE90A01FEF7FCFB81463648B0F9D3
:101EA0000000FEF7BFFBCDE9080131480088FEF7CE
:101EB000CAFB05460022334BFEF737FB0746884630
:101EC0002A480068FEF7AEFB054600224FF0824329
:101ED000FEF72BFB3A464346CDE90001FEF7ADFA8B
:101EE000CDE9040122480088FEF7ADFB054600223B
:101EF000244BFEF71AFB074688461C480068FEF78D
:101F000091FB054600224FF08243FEF70EFB3A4656
:101F10004346CDE90001FEF790FACDE90201DDE983
:101F20000423FEF790FACDE90601DDE90823FEF768
:101F30008AFACDE90A01FEF7ACFB824609EB0A00FA
:101F40001149086009EB0A00FEF76CFB0746002206
:101F50000E4BFEF7EAFA054600220D4BFEF76DFA2E
:101F6000C4E900010EB0BDE8F0870000600A00205F
:101F7000680A00206C0A00206E0A002000009040D1
:101F80000000D0400000C0405C0A00200000B440C7
:101F90000000244010B5FF22F421EC2000F0B4FE34
:101FA00010BD00BFFEE700002DE9FC412149086893
:101FB000FEF7A7FB06460F464FF040411E4842077A
:101FC0001E4BCDE900103046394600F0D5FE0446E0
:101FD000FEF7DAFB1A49086016494868FEF791FBDC
:101FE00006460F464FF0404113484207134BCDE9D8
:101FF00000103046394600F01BFF0446FEF7C4FBD4
:102000000F4948600B498868FEF77BFB06460F4680
:102010004FF0404108484207084BCDE900103046D8
:10202000394600F061FF0446FEF7AEFB04498860C4
:10203000BDE8FC811C2100207493583FB5F8F43EA4
:102040002821002021B1026842F00102026004E070
:1020500002684FF6FE731A400260704701684FF63F
:10206000FE72114001600021016041608160C16029
:102070004B49884208D14A490839496841F00F0163
:10208000474A083A51608AE045491431884208D1EC
:1020900043490839496841F0F001414A083A516022
:1020A0007DE03F492831884208D13D4908394968D7
:1020B00041F470613A4A083A516070E038493C3165
:1020C000884208D136490839496841F47041344A98
:1020D000083A516063E032495031884208D13049B2
:1020E0000839496841F470212D4A083A516056E098
:1020F0002B496431884208D129490839496841F49B
:102100007001274A083A516049E0254978318842F0
:1021100008D123490839496841F07061204A083ADA
:1021200051603CE01F49884206D1011F096841F017
:102130000F01021F116032E01A491431884208D1A0
:102140001849091F096841F0F001164A121F116071
:1021500025E014492831884208D11249091F09682D
:1021600041F470610F4A121F116018E00D493C31B3
:10217000884208D10B49091F096841F47041094A96
:10218000121F11600BE007495031884207D1054901
:10219000091F096841F47021024A121F116070473B
:1021A000080002400804024010B50022026847F609
:1021B000F0739A430C6A8B6823430C6923434C6980
:1021C00023438C692343CC6923434C6A23438C6AA1
:1021D00023431A430260CB6843600B6883604B68FB
:1021E000C36010BD704706E0002101E04A1CD1B277
:1021F0004829FBDB401E0028F6DC704700BF00BF0B
:1022000000BF00BF00BF00BF00BF00BF704701B5E7
:1022100003E04FF47A7000F007F80098411E009137
:102220000028F6D108BD000001B5084900980860F3
:102230004FF0E020006940F001004FF0E02108611C
:1022400000BF024800680028FBD108BD98000020AC
:1022500070B50024002500264FF4004000F080F8FF
:10226000002848D041E04FF40041234800F05EFCD4
:1022700001283AD100F068FC0446FA2C00DB35E076
:10228000C82C03DBFA2C01DA01251DE00A2C03DB44
:10229000322C01DA002617E0322C03DB642C01DA41
:1022A000012611E0642C0FDBC82C0DDC0120134942
:1022B000087013480078401C1149087011480078D4
:1022C000401C1049087011E0012D0ED10E48006825
:1022D00040000D490860084600683044086000204E
:1022E00007490870012007490870BCE700BF4FF498
:1022F000004000F02FF870BD000C0140990A00204A
:10230000980A002041000020940A002010B5022005
:1023100000F026F8B0B102210B4800F007FC38B1FC
:1023200001210A4804F014FB00200949087006E066
:102330000021064804F00CFB01200549087002202A
:1023400000F008F810BD0000000C0140001400402F
:102350008D0A002001490860704700001404014004
:10236000014600200022074B1B6803EA0102054BCF
:1023700014331B680B4013B10AB1012000E00020A8
:102380007047000000040140002123498279002A9F
:102390003AD00A46126803689A430B461A600A1D2F
:1023A000126803689A430B1D1A60027911440A6887
:1023B00003681A430A60184A0832126803689A438D
:1023C000154B08331A601A1D126803689A43124BA2
:1023D0000C331A604279102A0ED11A1F1268036852
:1023E0001A430D4B08331A601A1D126803681A430A
:1023F000094B0C331A600DE00749427911440A6811
:1024000003681A430A6005E0027911440A68036808
:102410009A430A6070470000000401400EB5012194
:10242000092003F0EBFD02F097FD4FF40040ADF8FA
:10243000080004208DF80B0002A90B4800F0A2FA56
:102440000F21012000F07EFA4FF4004000900020A0
:102450008DF804000C208DF8050001208DF8060091
:102460006846FFF791FF0EBD000C01400EB501213B
:10247000092003F0C3FD02F0F5FF0220ADF80800CB
:1024800028208DF80B0002A90A4800F07BFA0121F0
:10249000084600F057FA0220009000208DF8040052
:1024A00010208DF8050001208DF806006846FFF722
:1024B0006BFF0EBD000C01400149C8607047000071
:1024C0000020024030B5044604254FF4302000F0CF
:1024D00085F80546042D17D10C48006940F002002C
:1024E0000A49086108464461006940F040000861FB
:1024F0004FF4302000F072F805460448006941F6B8
:10250000FD71084001490861284630BD00200240A5
:1025100004200B49C96801F0010109B101200EE056
:102520000749C96801F0040109B1022007E0044924
:10253000C96801F0100109B1032000E004207047D0
:10254000002002400348006940F080000149086112
:10255000704700000020024078B506460C4604256E
:1025600000200090E80200F039F80546042D24D13F
:102570001348006940F00100114908613480E80205
:1025800000F02CF80546042D10D1B01C0090200C52
:1025900000990880E80200F021F805460848006923
:1025A00041F6FE7108400649086106E004480069EA
:1025B00041F6FE71084002490861284678BD0000D6
:1025C00000200240024803494860034848607047C1
:1025D0002301674500200240AB89EFCD00B50246DC
:1025E0000423FFF795FF034603E0FFF791FF03463F
:1025F000521E012B01D1002AF7D102B9052318463A
:1026000000BD00002DE9F04107F0C8FF95480088A3
:1026100000B2954908809548008800B29449088026
:102620009448008800B2944908809448008800B219
:10263000934908809348008800B2934908809348E2
:10264000008800B2924908809248008800B29249FE
:1026500008809248008800B291490880914800881B
:1026600000B29149088091480068914908609148FA
:102670000068914908609148006891490860914854
:102680000068914908609148006891490860914844
:102690000068914908609148006891490860914834
:1026A0000068914908609148006891490860914824
:1026B0000068914908609148006891490860914814
:1026C0000068914908607A480068FDF79DFF8046E0
:1026D000FEF717F8064600228C4BFDF726FF04464E
:1026E000FEF752F88A49086073480068FDF78CFFCE
:1026F0008046FEF706F806460022844BFDF715FFDC
:102700000446FEF741F8834908606D480068FDF70C
:102710007BFF8046FDF7F5FF064600227E4BFDF766
:1027200004FF0446FEF730F87C49086066480068FC
:10273000FDF76AFF8046FDF7E4FF06460022734B73
:10274000FDF7F3FE0446FEF71FF875490860604880
:102750000068FDF759FF8046FDF7D3FF06460022CB
:102760006A4BFDF7E2FE0446FEF70EF86D4908607D
:1027700059480068FDF748FF8046FDF7C2FF06464E
:102780000022624BFDF7D1FE0446FDF7FDFF6649CE
:10279000086053480068FDF737FF8046FDF7B1FF3A
:1027A00006460022594BFDF7C0FE0446FDF7ECFF3C
:1027B0005E4908604C480068FDF726FF8046FDF73B
:1027C000A0FF06460022514BFDF7AFFE0446FDF781
:1027D000DBFF5749086046480068FDF715FF804653
:1027E000FDF78FFF06460022484BFDF79EFE04468C
:1027F000FDF7CAFF4F4908603F480068FDF704FF36
:102800008046FDF77EFF06460022404BFDF78DFE19
:102810000446FDF7B9FF4849086039480068FDF7EC
:10282000F3FE8046FDF76DFF06460022374BFDF7AD
:102830007CFE0446FDF7A8FF404908603248006866
:10284000FDF7E2FE8046FDF75CFF064600222F4BB7
:10285000FDF76BFE0446FDF797FF39490860BDE8B8
:10286000F0810000C80B0020E20A0020CC0B002001
:10287000E40A0020D00B0020E60A0020D40B002040
:10288000140B0020D80B0020160B0020DC0B0020BE
:10289000180B0020E00B00201A0B0020E40B002096
:1028A0001C0B0020E80B00201E0B0020F80B002062
:1028B000840C0020FC0B0020880C0020000C002061
:1028C0008C0C0020EC0B0020900C0020F00B002062
:1028D000940C0020F40B0020980C0020100C002019
:1028E000B40C0020140C0020B80C0020180C0020A0
:1028F000BC0C0020040C0020C00C0020080C0020A0
:10290000C40C00200C0C0020C80C002000408F409C
:102910009C0C0020A00C002000005940A40C0020BA
:10292000A80C0020AC0C0020B00C0020CC0C002027
:10293000D00C0020D40C0020D80C0020DC0C00208F
:10294000E00C002030B500228B071C0F0F2303FA88
:1029500004F20B4B8C1053F824309343084C8D1029
:1029600044F8253023468C1053F824308C07240F6C
:1029700000FA04F42343024C8D1044F8253030BD96
:10298000080001402DE9F041024600250026002004
:1029900000230024002791F803C00CF00F0591F8E4
:1029A00003C00CF0100CBCF1000F03D091F802C072
:1029B0004CEA050591F800C0BCF1000F31D0146855
:1029C00000202BE04FF0010C0CFA00F3B1F800C02E
:1029D0000CEA03069E4220D183004FF00F0C0CFA44
:1029E00003F7BC4305FA03FC4CEA040491F803C066
:1029F000BCF1280F06D14FF0010C0CFA00FCC2F814
:102A000014C00AE091F803C0BCF1480F05D14FF0A3
:102A1000010C0CFA00FCC2F810C0401C0828D1D3ED
:102A20001460B1F800C0BCF1FF0F34DD5468002021
:102A30002EE000F1080C4FF0010808FA0CF3B1F891
:102A400000C00CEA03069E4221D183004FF00F0C18
:102A50000CFA03F7BC4305FA03FC4CEA040491F8B2
:102A600003C0BCF1280F05D100F1080C08FA0CF8DE
:102A7000C2F8148091F803C0BCF1480F07D100F1EF
:102A8000080C4FF0010808FA0CF8C2F81080401C3E
:102A90000828CED35460BDE8F0810000F0B50A46A6
:102AA000002300240021002500F00046B6F1004F6D
:102AB00002D11D4EF16901E01B4E7168C0F3034560
:102AC00083B200F44016B6F5401F08D121F07061C2
:102AD000154E766826F07066134F7E6012E000F4A3
:102AE0008016B6F5801F06D1032606FA05F4A14329
:102AF00041F0706106E0460D360103FA06F6B14377
:102B000041F0706122B1460D360103FA06F63143F9
:102B100000F00046B6F1004F02D1034EF16101E032
:102B2000014E7160F0BD000000000140024600202F
:102B300093680B400BB1012000E000207047416119
:102B4000704701617047000010B5002408E0601C68
:102B5000C4B21120FFF768FBFA2C01D1204610BD4A
:102B60004FF400410348FFF7E1FF0028EFD1204672
:102B7000F5E70000000C014000BFFEE770B500243F
:102B8000802010490860002518E06006040E4020EF
:102B90000C4908600B480838006800F08000802865
:102BA00001D1012600E00026344340200549091DDB
:102BB00008600120FFF738FB681CC5B2082DE4DB74
:102BC000204670BD100C014000B518B18021084AA4
:102BD000116003E08021064A121D11604021044A61
:102BE0001160FFF70BFB4021014A121D116000BD6F
:102BF000100C014070B5054600241AE005FA04F0F7
:102C000000F0800018B180201049086003E08020A7
:102C10000E49091D086040200C490860FFF7EEFAD4
:102C200040200A49091D08600120FFF7FDFA601CD9
:102C3000C4B2082CE2DB402004490860FFF7DEFA4A
:102C400040200249091D086070BD0000100C0140C1
:102C500000B580200C4908604020086000BF00BF1C
:102C600000BF00BF00BF00BF00BF00BF00BF00BF6C
:102C700080200549091D0860FFF7C0FA402002497D
:102C8000091D086000BD0000100C014010B5802037
:102C9000074908604020091F0860FFF7AFFA80204D
:102CA0000349091F08600120FFF7BEFA10BD0000AC
:102CB000140C01402DE9F04106460F4614461D460E
:102CC000FFF7C6FF3046FFF795FF3846FFF792FF44
:102CD000FFF7BEFF711CC8B2FFF78CFF0BE0FFF7D8
:102CE0004DFF2070641C1DB90120FFF76DFF02E04D
:102CF0000020FFF769FF281EA5F101018DB2EED17A
:102D0000FFF7C4FFBDE8F08170B506460C461546D6
:102D1000FFF79EFF3046FFF76DFF2046FFF76AFF83
:102D20002846FFF767FFFFF7B1FF70BD10B5FFF74B
:102D300075FB10BD30B50E480068010E0C480068E8
:102D4000C0F307440A480088C0F307220848037804
:102D50000020084D2870E043C0B2884206D129B94E
:102D6000D843C0B2904201D1104630BD0020FCE7EC
:102D7000940A0020990A00202DE9FF5F8EB01446C6
:102D80001D46DDE91CABCDE90CABCDE90A4500BF22
:102D9000244803C8CDE908012349DDE90A2303C912
:102DA000FDF7AAFA8046894640464946DDE90C23EC
:102DB000FDF7A2FA02460B46CDE90201404649461C
:102DC000FDF7B3FBCDE90401DDE90823DDE90E01E0
:102DD000FDF733FBCDE90001DDE90423FDF733FB0B
:102DE000CDE90201DDE90823FDF786FA06460F4624
:102DF00000200E49DDE90423FDF71FFB42464B4648
:102E0000CDE90201FDF71FFBCDE90601064ADDE928
:102E1000060103C20348C0C03046394612B0BDE8BF
:102E2000F09F0000200C0020280C00200000F03F44
:102E30002DE9FF5F8EB014461D46DDE91CABCDE9E0
:102E40000CABCDE90A4500BF244803C8CDE9080111
:102E50002349DDE90A2303C9FDF74EFA8046894676
:102E600040464946DDE90C23FDF746FA02460B468B
:102E7000CDE9020140464946FDF757FBCDE9040183
:102E8000DDE90823DDE90E01FDF7D7FACDE9000100
:102E9000DDE90423FDF7D7FACDE90201DDE90823D6
:102EA000FDF72AFA06460F4600200E49DDE9042305
:102EB000FDF7C3FA42464B46CDE90201FDF7C3FADE
:102EC000CDE90601064ADDE9060103C20348C0C098
:102ED0003046394612B0BDE8F09F0000300C0020AB
:102EE000380C00200000F03F2DE9FF5F8EB0144643
:102EF0001D46DDE91CABCDE90CABCDE90A4500BFB1
:102F0000244803C8CDE908012349DDE90A2303C9A0
:102F1000FDF7F2F98046894640464946DDE90C2333
:102F2000FDF7EAF902460B46CDE902014046494663
:102F3000FDF7FBFACDE90401DDE90823DDE90E0127
:102F4000FDF77BFACDE90001DDE90423FDF77BFA0B
:102F5000CDE90201DDE90823FDF7CEF906460F466B
:102F600000200E49DDE90423FDF767FA42464B468F
:102F7000CDE90201FDF767FACDE90601064ADDE970
:102F8000060103C20348C0C03046394612B0BDE84E
:102F9000F09F0000400C0020480C00200000F03F93
:102FA00008B50121042003F029F80120ADF8000044
:102FB00010208DF8030003208DF8020069460448B4
:102FC000FFF7E0FC01210248FFF7BBFD08BD000050
:102FD0000008014010B5C82802DC10F1C80F05DA5E
:102FE000144BB3F90030144C238003E0124B1B88C0
:102FF000104C2380C82902DC11F1C80F05DA0F4BF1
:10300000B3F900300C4C638003E00B4B5B880B4C36
:103010002380C82A02DC12F1780F05DA084BB3F9D5
:103020000030054CA38003E0034B9B88044C2380B5
:1030300010BD0000D00A0020AC0A0020D20A0020F7
:10304000D40A002010B5012400206F490870D7E091
:103050006D480078002851D101206B49087001F0BB
:10306000D3FF6AA20021202002F09EF969A202216A
:10307000102002F099F969A20421102002F094F9BD
:1030800068A20621102002F08FF9012C04D0022C36
:1030900012D0032C30D11FE02A220221082002F096
:1030A00009F920220421082002F004F92022062137
:1030B000082002F0FFF820E020220221082002F080
:1030C000F9F82A220421082002F0F4F8202206212F
:1030D000082002F0EFF810E020220221082002F080
:1030E000E9F820220421082002F0E4F82A2206212F
:1030F000082002F0DFF800E000BF00BF4B48007876
:1031000001287DD1FFF716FE49490870084600786E
:10311000982805D1601CC4B2042C1CD101241AE0EB
:1031200043480078022804D1601EC4B29CB903242D
:1031300011E03F480078A8280DD1012C02D100F001
:103140007BF808E0022C02D100F062FA03E0032CC5
:1031500001D100F02FFD36480078C22817D101F0C8
:1031600053FF0020284908700024FF2030490870D0
:1031700005E000202D4908702E48FFF755F82B4830
:1031800000780028F5D1FF202949087038E0012C8B
:1031900004D0022C12D0032C30D11FE02A220221AD
:1031A000082002F087F820220421082002F082F88B
:1031B00020220621082002F07DF820E020220221B2
:1031C000082002F077F82A220421082002F072F881
:1031D00020220621082002F06DF810E020220221B2
:1031E000082002F067F820220421082002F062F88B
:1031F0002A220621082002F05DF800E000BF00BF8F
:10320000002C7FF425AF10BD9B0A00205049445F7D
:1032100053455400494E545F504944004F55545F44
:10322000504944005941575F50494400990A0020D1
:103230009A0A002000350C0038B501240020E4492A
:103240000870FFF7DFF9BFE1E148007800285DD1A1
:103250000120DF49087001F0D7FEDEA20021202006
:1032600002F0A2F8012C04D0022C12D0032C30D191
:103270001FE02A220221082002F01CF8202204214B
:10328000082002F017F820220621082002F012F888
:1032900020E020220221082002F00CF82A2204213A
:1032A000082002F007F820220621082002F002F888
:1032B00010E020220221082001F0FCFF202204213E
:1032C000082001F0F7FF2A220621082001F0F2FF72
:1032D00000E000BF00BF102005230090BF4802217E
:1032E0000268402002F01EF8102005230090BC4820
:1032F00004210268402002F015F8102005230090F8
:10330000B84806210268402002F00CF8B648007860
:10331000012898D1FFF70EFDB449087008460078DF
:10332000982817D1012C05D1AC480068401EAB4944
:103330000860ADE0022C05D1A9480068401EA849EC
:103340000860A5E0032CF4D1A6480068401EA549FA
:1033500008609DE0A5480078022817D1012C05D10E
:103360009E480068401C9D49086091E0022C05D1F0
:103370009B480068401C9A49086089E0032CD8D11A
:1033800098480068401C9749086081E09748007899
:10339000302817D1012C05D1904800680A388F4990
:1033A000086075E0022C05D18D4800680A388C4908
:1033B00008606DE0032C6BD18A4800680A3889499F
:1033C000086065E089480078682817D1012C05D18C
:1033D000824800680A308149086059E0022C05D112
:1033E0007F4800680A307E49086051E0032C4FD1C5
:1033F0007C4800680A307B49086049E07B480078D7
:103400007A2817D1012C05D17448006864387349B3
:1034100008603DE0022C05D17148006864387049AD
:10342000086035E0032C33D16E48006864386D497C
:1034300008602DE06D480078B02817D1012C05D127
:103440006648006864306549086021E0022C05D1B7
:103450006348006864306249086019E0032C17D1A2
:103460006048006864305F49086011E05F48007898
:10347000902805D1601CC4B2042C09D1012407E0B6
:103480005A480078E02803D1601EC4B204B903246E
:1034900056480078C22843D101F0B6FD00204C49BF
:1034A00008700024FF205149087005E000204E49B3
:1034B00008704F48FEF7B8FE4B4800780028F5D159
:1034C000FF204A490870454800684A490860444856
:1034D00000684949086043480068484908603F4817
:1034E0000068FDF791F805464549FCF7C7FE4549D8
:1034F00008603B480068FDF787F805464049FCF73F
:10350000BDFE4149086037480068FDF77DF8054673
:103510003B49FCF7B3FE3D49086007F011FB53E05F
:10352000012C04D0022C12D0032C30D11FE02A220F
:103530000221082001F0BEFE20220421082001F013
:10354000B9FE20220621082001F0B4FE20E020224E
:103550000221082001F0AEFE2A220421082001F0F9
:10356000A9FE20220621082001F0A4FE10E020225E
:103570000221082001F09EFE20220421082001F0F3
:1035800099FE2A220621082001F094FE00E000BFE7
:1035900000BF10200523009010480221026840203F
:1035A00001F0C0FE1020052300900D4804210268A0
:1035B000402001F0B7FE10200523009009480621A5
:1035C0000268402001F0AEFE002C7FF43DAE38BD15
:1035D0009B0A002050494420494E5400900C002082
:1035E000940C0020980C0020990A00209A0A0020D0
:1035F00000350C00EC0B0020F00B0020F40B002039
:1036000000007A44A80C0020AC0C0020B00C002074
:103610002DE9F84301240020FB490870FEF7F2FF72
:10362000A7E2F948007800285DD10120F64908702A
:1036300001F0EAFCF5A20021202001F0B5FE012CEA
:1036400004D0022C12D0032C30D11FE02A220221F8
:10365000082001F02FFE20220421082001F02AFE7C
:1036600020220621082001F025FE20E02022022150
:10367000082001F01FFE2A220421082001F01AFE72
:1036800020220621082001F015FE10E02022022150
:10369000082001F00FFE20220421082001F00AFE7C
:1036A0002A220621082001F005FE00E000BF00BF2D
:1036B000102006230090D74802210268402001F024
:1036C00031FE102006230090D348042102684020D8
:1036D00001F028FE102008230090D048062102683F
:1036E000302001F01FFECE480078012898D1FFF766
:1036F00021FBCC49087008460078982817D1012C86
:1037000005D1C4480068401EC24908606DE1022C22
:1037100005D1C1480068401EBF49086065E1032C1F
:10372000F4D1BE480068401EBC4908605DE1BD4858
:103730000078022817D1012C05D1B6480068401C3A
:10374000B449086051E1022C05D1B3480068401C1F
:10375000B149086049E1032CD8D1B0480068401C49
:10376000AE49086041E1AF480078302817D1012CFC
:1037700005D1A84800680A38A649086035E1022C3E
:1037800005D1A54800680A38A34908602DE1032C3B
:10379000BCD1A24800680A38A049086025E1A148C8
:1037A0000078682817D1012C05D19A4800680A30A2
:1037B0009849086019E1022C05D1974800680A3041
:1037C0009549086011E1032CA0D1944800680A30A3
:1037D0009249086009E1934800787A2817D1012CB2
:1037E00005D18C48006864388A490860FDE0022CE5
:1037F00005D189480068643887490860F5E0032CE2
:1038000084D186480068643884490860EDE08548C2
:103810000078B02817D1012C05D17E4800686430AB
:103820007C490860E1E0022C05D17B4800686430E7
:1038300079490860D9E0032C84D178480068643065
:1038400076490860D1E07748007810281AD1012C19
:1038500006D170480068A0F57A706E490860C4E02F
:10386000022C06D16C480068A0F57A706A4908609D
:10387000BBE0032C8AD169480068A0F57A706749DB
:103880000860B2E06748007842281AD1012C06D1BE
:103890006048006800F57A705E490860A5E0022C77
:1038A00006D15D48006800F57A705B4908609CE0CD
:1038B000032C05D15948006800F57A705749086013
:1038C00093E05848007838281DD1012C07D1514881
:1038D0000068A0F51C5010384E49086085E0022CA5
:1038E00007D14D480068A0F51C5010384A490860BF
:1038F0007BE0032C79D149480068A0F51C501038B2
:103900004649086071E0474800784A281DD1012CDB
:1039100007D14048006842F2107108443D490860F0
:1039200063E0022C07D13C48006842F21071084461
:103930003949086059E0032C57D13848006842F2F1
:1039400010710844354908604FE0364800785A281D
:103950001AD1012C06D12F4800683349401A2D494D
:10396000086042E0022C06D12B4800682E49401A1C
:103970002949086039E0032C37D1284800682A49D2
:10398000401A2649086030E02648007852281AD1AB
:10399000012C06D11F480068234908441D490860CE
:1039A00023E0022C06D11C4800681F4908441A492C
:1039B00008601AE0032C18D1184800681A49084416
:1039C0001649086011E017480078902805D1601C5E
:1039D000C4B2042C09D1012407E012480078E02881
:1039E00003D1601EC4B204B903240E480078C22873
:1039F0006BD101F009FB0020034908700024FF206F
:103A00000849087018E000009B0A00205049442033
:103A10004F555400840C0020880C00208C0C002092
:103A2000990A00209A0A0020A0860100002053492C
:103A300008705348FEF7F8FB504800780028F5D18D
:103A4000FF205049087050480068504908605048AD
:103A500000685049086050480068504908604A486A
:103A60000068FCF7D1FD8146FCF74BFE07460022BB
:103A70004B4BFCF75AFD0546FCF786FE49490860AA
:103A800043480068FCF7C0FD8146FCF73AFE074654
:103A90000022434BFCF749FD0546FCF775FE424901
:103AA00008603D480068FCF7AFFD8146FCF729FE41
:103AB000074600223D4BFCF738FD0546FCF764FE47
:103AC0003B49086007F03CF853E0012C04D0022C7D
:103AD00012D0032C30D11FE02A220221082001F04D
:103AE000E9FB20220421082001F0E4FB202206212A
:103AF000082001F0DFFB20E020220221082001F055
:103B0000D9FB2A220421082001F0D4FB202206211F
:103B1000082001F0CFFB10E020220221082001F054
:103B2000C9FB20220421082001F0C4FB2A2206211F
:103B3000082001F0BFFB00E000BF00BF10200623FB
:103B40000090114802210268402001F0EBFB102098
:103B5000062300900E4804210268402001F0E2FB99
:103B60001020082300900C4806210268302001F044
:103B7000D9FB002C7FF455ADBDE8F883990A0020ED
:103B800000350C009A0A0020840C0020F80B00205D
:103B9000880C0020FC0B00208C0C0020000C002066
:103BA00000408F409C0C0020A00C002000005940D9
:103BB000A40C002010B50124002058490870A9E089
:103BC0005648007800283AD101205449087001F085
:103BD0001BFA53A20021202001F0E6FB52A2022191
:103BE000102001F0E1FB52A20421102001F0DCFBC7
:103BF000012C02D0022C20D10FE02A220221082021
:103C000001F058FB20220421082001F053FB202260
:103C10000621082001F04EFB10E02022022108209E
:103C200001F048FB2A220421082001F043FB202256
:103C30000621082001F03EFB00E000BF00BF3E4827
:103C40000078012866D1FFF775F83C4908700846EE
:103C50000078982805D1601CC4B2032C17D1012428
:103C600015E036480078022804D1601EC4B274B949
:103C700002240CE031480078A82808D1012C02D198
:103C800000F060F803E0022C01D100F047FA2B4865
:103C90000078C22817D101F0B7F900201F49087039
:103CA0000024FF202549087005E000202249087003
:103CB0002348FEF7B9FA204800780028F5D1FF2004
:103CC0001E49087026E0012C02D0022C20D10FE002
:103CD0002A220221082001F0EDFA202204210820E6
:103CE00001F0E8FA20220621082001F0E3FA10E0B2
:103CF00020220221082001F0DDFA2A2204210820D6
:103D000001F0D8FA20220621082001F0D3FA00E0C1
:103D100000BF00BF002C7FF453AF10BD9B0A0020F2
:103D20005941575F53455400494E545F5049440030
:103D30004F55545F50494400990A00209A0A0020C8
:103D400000350C0038B501240020E4490870FEF766
:103D500059FCBFE1E148007800285DD10120DF492E
:103D6000087001F051F9DEA20021202001F01CFBB7
:103D7000012C04D0022C12D0032C30D11FE02A22B7
:103D80000221082001F096FA20220421082001F0E7
:103D900091FA20220621082001F08CFA20E020224E
:103DA0000221082001F086FA2A220421082001F0CD
:103DB00081FA20220621082001F07CFA10E020225E
:103DC0000221082001F076FA20220421082001F0C7
:103DD00071FA2A220621082001F06CFA00E000BFE7
:103DE00000BF102005230090BF4802210268402038
:103DF00001F098FA102005230090BC4804210268C5
:103E0000402001F08FFA102005230090B8480621C9
:103E10000268402001F086FAB6480078012898D15F
:103E2000FEF788FFB449087008460078982817D133
:103E3000012C05D1AC480068401EAB490860ADE0DC
:103E4000022C05D1A9480068401EA8490860A5E0D9
:103E5000032CF4D1A6480068401EA54908609DE0E7
:103E6000A5480078022817D1012C05D19E4800688A
:103E7000401C9D49086091E0022C05D19B480068D8
:103E8000401C9A49086089E0032CD8D19848006802
:103E9000401C9749086081E097480078302817D186
:103EA000012C05D1904800680A388F49086075E0F8
:103EB000022C05D18D4800680A388C4908606DE0F5
:103EC000032C6BD18A4800680A388949086065E08C
:103ED00089480078682817D1012C05D182480068EC
:103EE0000A308149086059E0022C05D17F480068FA
:103EF0000A307E49086051E0032C4FD17C480068AD
:103F00000A307B49086049E07B4800787A2817D15D
:103F1000012C05D1744800686438734908603DE09D
:103F2000022C05D17148006864387049086035E09A
:103F3000032C33D16E48006864386D4908602DE069
:103F40006D480078B02817D1012C05D1664800686B
:103F500064306549086021E0022C05D1634800689F
:103F600064306249086019E0032C17D1604800688A
:103F700064305F49086011E05F480078902805D1FF
:103F8000601CC4B2042C09D1012407E05A4800780F
:103F9000E02803D1601EC4B204B903245648007857
:103FA000C22843D101F030F800204C4908700024A9
:103FB000FF205149087005E000204E4908704F4825
:103FC000FEF732F94B4800780028F5D1FF204A4926
:103FD0000870454800684A490860444800684949F3
:103FE000086043480068484908603F480068FCF79B
:103FF0000BFB05464549FCF741F9454908603B483C
:104000000068FCF701FB05464049FCF737F94149D8
:10401000086037480068FCF7F7FA05463B49FCF7AB
:104020002DF93D49086006F08BFD53E0012C04D0CA
:10403000022C12D0032C30D11FE02A2202210820AA
:1040400001F038F920220421082001F033F9202260
:104050000621082001F02EF920E02022022108206C
:1040600001F028F92A220421082001F023F9202256
:104070000621082001F01EF910E02022022108206C
:1040800001F018F920220421082001F013F92A2256
:104090000621082001F00EF900E000BF00BF10204B
:1040A00005230090104802210268402001F03AF9EF
:1040B0001020052300900D4804210268402001F0E3
:1040C00031F910200523009009480621026840209C
:1040D00001F028F9002C7FF43DAE38BD9B0A00208A
:1040E00059415720494E5400C00C0020C40C0020F8
:1040F000C80C0020990A00209A0A002000350C0004
:10410000040C0020080C00200C0C002000007A4455
:10411000D80C0020DC0C0020E00C00202DE9F84336
:1041200001240020FB490870FEF76CFAA7E2F94869
:10413000007800285DD10120F649087000F064FF86
:10414000F5A20021202001F02FF9012C04D0022C2F
:1041500012D0032C30D11FE02A220221082001F0C6
:10416000A9F820220421082001F0A4F82022062129
:10417000082001F09FF820E020220221082001F011
:1041800099F82A220421082001F094F8202206211F
:10419000082001F08FF810E020220221082001F011
:1041A00089F820220421082001F084F82A2206211F
:1041B000082001F07FF800E000BF00BF10200623B8
:1041C0000090D74802210268402001F0ABF810208F
:1041D00006230090D34804210268402001F0A2F891
:1041E000102008230090D04806210268302001F0FA
:1041F00099F8CE480078012898D1FEF79BFDCC496C
:10420000087008460078982817D1012C05D1C448B9
:104210000068401EC24908606DE1022C05D1C1480A
:104220000068401EBF49086065E1032CF4D1BE4818
:104230000068401EBC4908605DE1BD480078022866
:1042400017D1012C05D1B6480068401CB44908605C
:1042500051E1022C05D1B3480068401CB149086007
:1042600049E1032CD8D1B0480068401CAE49086031
:1042700041E1AF480078302817D1012C05D1A8487A
:1042800000680A38A649086035E1022C05D1A54826
:1042900000680A38A34908602DE1032CBCD1A2486C
:1042A00000680A38A049086025E1A148007868281C
:1042B00017D1012C05D19A4800680A309849086046
:1042C00019E1022C05D1974800680A309549086029
:1042D00011E1032CA0D1944800680A30924908608B
:1042E00009E1934800787A2817D1012C05D18C4830
:1042F000006864388A490860FDE0022C05D18948CD
:104300000068643887490860F5E0032C84D186484A
:104310000068643884490860EDE085480078B0287A
:1043200017D1012C05D17E48006864307C490860B3
:10433000E1E0022C05D17B480068643079490860CF
:10434000D9E0032C84D1784800686430764908604D
:10435000D1E07748007810281AD1012C06D1704896
:104360000068A0F57A706E490860C4E0022C06D19E
:104370006C480068A0F57A706A490860BBE0032CBD
:104380008AD169480068A0F57A7067490860B2E090
:104390006748007842281AD1012C06D1604800688D
:1043A00000F57A705E490860A5E0022C06D15D48F0
:1043B000006800F57A705B4908609CE0032C05D129
:1043C0005948006800F57A705749086093E05848EA
:1043D000007838281DD1012C07D151480068A0F57C
:1043E0001C5010384E49086085E0022C07D14D481A
:1043F0000068A0F51C5010384A4908607BE0032C87
:1044000079D149480068A0F51C5010384649086029
:1044100071E0474800784A281DD1012C07D1404857
:10442000006842F2107108443D49086063E0022CC4
:1044300007D13C48006842F21071084439490860CD
:1044400059E0032C57D13848006842F210710844F3
:10445000354908604FE0364800785A281AD1012CB7
:1044600006D12F4800683349401A2D49086042E0C0
:10447000022C06D12B4800682E49401A29490860B1
:1044800039E0032C37D1284800682A49401A2649C8
:10449000086030E02648007852281AD1012C06D155
:1044A0001F480068234908441D49086023E0022C86
:1044B00006D11C4800681F4908441A4908601AE0E0
:1044C000032C18D1184800681A4908441649086096
:1044D00011E017480078902805D1601CC4B2042C64
:1044E00009D1012407E012480078E02803D1601EBA
:1044F000C4B204B903240E480078C2286BD100F07E
:1045000083FD0020034908700024FF20084908703B
:1045100018E000009B0A0020504944204F555400E9
:10452000B40C0020B80C0020BC0C0020990A00201C
:104530009A0A0020A08601000020534908705348C1
:10454000FDF772FE504800780028F5D1FF20504951
:104550000870504800685049086050480068504949
:10456000086050480068504908604A480068FCF7F5
:104570004BF88146FCF7C5F8074600224B4BFBF78A
:10458000D4FF0546FCF700F9494908604348006834
:10459000FCF73AF88146FCF7B4F807460022434B93
:1045A000FBF7C3FF0546FCF7EFF8424908603D48BA
:1045B0000068FCF729F88146FCF7A3F807460022BB
:1045C0003D4BFBF7B2FF0546FCF7DEF83B490860C0
:1045D00006F0B6FA53E0012C04D0022C12D0032CC2
:1045E00030D11FE02A220221082000F063FE2022A1
:1045F0000421082000F05EFE20220621082000F0A1
:1046000059FE20E020220221082000F053FE2A2239
:104610000421082000F04EFE20220621082000F090
:1046200049FE10E020220221082000F043FE202253
:104630000421082000F03EFE2A220621082000F076
:1046400039FE00E000BF00BF102006230090114893
:1046500002210268402000F065FE10200623009031
:104660000E4804210268402000F05CFE1020082360
:1046700000900C4806210268302000F053FE002C08
:104680007FF455ADBDE8F883990A002000350C0091
:104690009A0A0020B40C0020100C0020B80C002056
:1046A000140C0020BC0C0020180C002000408F408F
:1046B000CC0C0020D00C002000005940D40C00206D
:1046C00010B501240020214908703CE01F48007803
:1046D000C0B901201D49087000F096FC1922002184
:1046E000202000F07BFD1A220021302000F076FD12
:1046F00015220021402000F071FD162200215020DB
:1047000000F06CFD1248007801281CD1FEF712FB66
:104710001049087008460078C22814D100200B49BF
:104720000870002405E00020094908700A48FDF7D8
:104730007BFD074800780028F5D1FF200549087067
:10474000002006490870002CC0D110BD9B0A002033
:10475000990A00209A0A002000350C00800C0020E5
:1047600010B50124002062490870B8E06048007864
:1047700000285DD101205E49087000F045FC1E2232
:104780000021302000F02AFD1F220021402000F0EF
:1047900025FD1B220321182000F020FD1C220321EF
:1047A000282000F01BFD1D220321382000F016FDFB
:1047B0001E220321482000F011FD1F220321582052
:1047C00000F00CFD20220521182000F007FD212219
:1047D0000521282000F002FD22220521382000F0CA
:1047E000FDFC1E220521482000F0F8FC1F220521B7
:1047F000582000F0F3FC012C02D0022C16D10AE064
:104800002A220321082000F055FD2022052108203E
:1048100000F050FD0BE020220321082000F04AFDAB
:104820002A220521082000F045FD00E000BF00BF5E
:1048300030480078012852D1FEF77CFA2E490870E2
:1048400008460078982805D1601CC4B2032C1BD1FF
:10485000012419E028480078022804D1601EC4B25F
:1048600094B9022410E024480078A8280CD1012132
:10487000102001F0A3FB012C02D100F03FF803E06F
:10488000022C01D100F066F91B480078C22809D13A
:1048900000F0BAFB0020164908700024FF201649DA
:1048A00008701CE0012C02D0022C16D10AE02A224A
:1048B0000321082000F0FEFC20220521082000F042
:1048C000F9FC0BE020220321082000F0F3FC2A224F
:1048D0000521082000F0EEFC00E000BF00BF002C26
:1048E0007FF444AF0021102001F068FB10BD0000F0
:1048F0009B0A0020990A00209A0A00202DE9F84F0F
:104900000124002082490870824908808249088079
:10491000824908808249086048608860F3E07C48EA
:104920000078E8B901207A49087000F06DFB1B227D
:104930000021182000F052FC1C220021282000F049
:104940004DFC1D220021382000F048FC1E220021D1
:10495000482000F043FC1F220021582000F03EFCBC
:104960007048007800287FD000206E4908706E489B
:1049700000F0C9FA6C4BB3F90420B3F90210B3F993
:10498000000004F0E3F96348B0F90000FBF73CFED7
:1049900083466649FBF772FC8246FBF7B2FE074688
:1049A0000022634BFBF74FFD0546FBF791FE00F03D
:1049B000FF095848B0F90000782801DB4FF064097E
:1049C000102003234A4602210090402000F0AAFC58
:1049D0005148B0F90000FBF717FE83465349FBF737
:1049E0004DFC8246FBF78DFE07460022504BFBF73D
:1049F0002AFD0546FBF76CFE00F0FF094648B0F9BA
:104A00000000782801DB4FF06409102003234A4698
:104A100004210090402000F085FC4048B0F90000DF
:104A2000FBF7F2FD83464149FBF728FC8246FBF782
:104A300068FE074600223E4BFBF705FD0546FBF7E7
:104A400047FE00F0FF093548B0F90000782801DB87
:104A50004FF06409102003234A46062100904020AD
:104A600000E001E000F05EFC2A48B0F90000782880
:104A700014DB2948B0F9000078280FDB2748B0F98B
:104A8000000078280ADB04F003FC00F0BDFA0020E7
:104A90001F4908700024FF20264908702648007826
:104AA000012830D1FEF746F92249087008460078FF
:104AB000E2280AD104F0ECFB00F0A6FA0020144929
:104AC00008700024FF201B4908701A480078C2288B
:104AD00019D100F099FA00200D490870002405F062
:104AE0005DFD1648008800B2154908801548008809
:104AF00000B2154908801548008800B214490880A2
:104B0000FF200C490870002C7FF409AFBDE8F88F36
:104B10009B0A0020E80A0020EA0A0020EC0A002094
:104B20004C21002049000020AC0A00200000F04287
:104B3000000059409A0A0020990A0020C80B002062
:104B4000E20A0020CC0B0020E40A0020D00B002059
:104B5000E60A00207CB5012400206E4908706E49E9
:104B600008706E4908806E4908806E4908806E4959
:104B700008806E4908806E490880C6E06548007864
:104B8000E8B901206349087000F03EFA20220021B4
:104B9000182000F023FB21220021282000F01EFB1A
:104BA00022220021382000F019FB1E22002148207B
:104BB00000F014FB1F220021582000F00FFB5D487D
:104BC000007828B300205B4908705B4800F0C8F803
:104BD0005A4800F0E6F85848B0F904005649B1F9CF
:104BE0000210554DCDE90010B5F90030534DB5F91F
:104BF0000420B5F90210B5F9000003F0AFFF102052
:104C000003230090444802780621402000F08AFBEC
:104C100041480078FF2825D100F0F6F900203D49F1
:104C20000870002405F0BAFC4548008800B23B49F2
:104C300008804448008800B239490880424800880A
:104C400000B2384908804148008800B236490880DF
:104C50003F48008800B2354908803E48008800B2CD
:104C6000334908802C48007864280AD104F006FAF9
:104C700000F0CAF90020274908700024FF203649B7
:104C800008703648007801283FD1FEF753F83249C2
:104C9000087008460078E2280AD104F0EFF900F025
:104CA000B3F900201B4908700024FF202A4908702E
:104CB00029480078C22828D100F0A6F9002015491B
:104CC0000870002405F06AFC1D48008800B21349F2
:104CD00008801C48008800B2114908801A480088E2
:104CE00000B2104908801948008800B20E490880B7
:104CF0001748008800B20D4908801648008800B2A5
:104D00000B490880FF2014490870002C7FF436AF4F
:104D10007CBD00009B0A0020F80A0020140B002034
:104D2000160B0020180B00201A0B00201C0B002073
:104D30001E0B002049000020A00A0020A60A002027
:104D4000D40B0020D80B0020DC0B0020E00B00204F
:104D5000E40B0020E80B00209A0A0020990A0020AA
:104D60001CB5044606236A463B21D020FDF7A2FF6E
:104D70009DF801009DF8001040EA012000B220805B
:104D80009DF803009DF8021040EA012000B2608007
:104D90009DF805009DF8041040EA012000B2A080B3
:104DA0001CBD1CB5044606236A464321D020FDF7EE
:104DB00081FF9DF801009DF8001040EA012000B23B
:104DC00020809DF803009DF8021040EA012000B207
:104DD00060809DF805009DF8041040EA012000B2B3
:104DE000A0801CBD7FB504460D4616460E236A46BC
:104DF0003B21D020FDF75EFF9DF801009DF80010DB
:104E000040EA012000B220809DF803009DF80210C6
:104E100040EA012000B260809DF805009DF8041072
:104E200040EA012000B2A0809DF807009DF806101E
:104E300040EA012000B230809DF809009DF808107A
:104E400040EA012000B228809DF80B009DF80A106E
:104E500040EA012000B268809DF80D009DF80C101A
:104E600040EA012000B2A8807FBD70B50024002573
:104E700000BF06E0002500E06D1CB5F57A7FFBDB86
:104E8000641CB4F57A7FF5DB41F28830FDF7CCF98C
:104E900000226B21D020FDF737FF07221921D020F7
:104EA000FDF732FF03221A21D020FDF72DFF082243
:104EB0001B21D020FDF728FF08221C21D020FDF760
:104EC00023FF06221D21D020FDF71EFF02223721DD
:104ED000D020FDF719FF12220A211820FDF714FF38
:104EE000FF2210211820FDF70FFFFF2211211820AB
:104EF000FDF70AFFFF2212211820FDF705FF6420AD
:104F0000FDF792F970BD1CB5044606236A460321DD
:104F10001820FDF7CFFE9DF800009DF8011040EA33
:104F2000012000B220809DF802009DF8031040EAA5
:104F3000012000B260809DF804009DF8051040EA51
:104F4000012000B2A08001220A211820FDF7DCFE1A
:104F50001CBD00BFFEE7704708B54FF4C06000F00D
:104F600049F828208DF8000001208DF80100052067
:104F70008DF8020001208DF80300684600F002F869
:104F800008BD000070B5002100230F22C47804B3CF
:104F9000154C246804F4E064C4F5E064210AC1F10E
:104FA0000403CA40447804FA03F18478144021438E
:104FB00009010E4C0678A155047804F01F05012460
:104FC000AC4005786D11AD0005F1E025C5F8004154
:104FD00009E0047804F01F050124AC40044D067874
:104FE000761145F8264070BD0CED00E000E400E0CD
:104FF00080E100E002490143024A1160704700006D
:105000000000FA050CED00E070B5002419E004F191
:10501000B001C8B2002100F0E3F90021084600F019
:10502000DFF90021102000F0DBF9002505E0012167
:10503000002000F0D5F9681CC5B2802DF7DB601C9C
:10504000C4B2082CE3DB70BD08B50121082000F0D4
:10505000D5FF4FF4F840ADF8000010208DF80300A4
:1050600003208DF8020069464C48FDF78BFC4FF495
:10507000F8414A48FDF765FD4FF480514748FDF778
:1050800060FD4FF480514548FDF759FD4FF48051C4
:105090004248FDF756FD0021AE2000F0A1F90021A5
:1050A000084600F09DF90021102000F099F9002138
:1050B000402000F095F90021812000F091F90021B5
:1050C000CF2000F08DF90021A12000F089F9002106
:1050D000C82000F085F90021A62000F081F9002108
:1050E000A82000F07DF900213F2000F079F900218F
:1050F000D32000F075F90021084600F071F9002175
:10510000D52000F06DF90021802000F069F9002120
:10511000D92000F065F90021F12000F061F90021AB
:10512000DA2000F05DF90021122000F059F9002189
:10513000DB2000F055F90021402000F051F900215A
:10514000202000F04DF90021022000F049F9002153
:105150008D2000F045F90021142000F041F90021D4
:10516000A42000F03DF90021A62000F039F900212B
:10517000AF2000F035F90021AF2000F031F9FFF742
:1051800043FF0021084600F011F8FFF73DFF04A29D
:105190000321102000F008F908BD0000000C0140B8
:1051A00077616974696E672E2E2E000070B5044613
:1051B0000D4605F1B001C8B2002100F011F910212F
:1051C00041EA1410002100F00BF904F00F0141F046
:1051D0000100002100F004F970BD00002DE9F0414C
:1051E00080460E461546002731464046FFF7DEFF53
:1051F00000240AE0124A02EB8511085D012100F04B
:10520000EFF8781CC7B2601CC4B2102CF2DB701C23
:10521000C1B24046FFF7CAFF00240CE06900491CF8
:10522000074A02EB4111085D012100F0D9F8781C12
:10523000C7B2601CC4B2102CF0DBBDE8F0810000E6
:105240009C0000202DE9F04180460E4615460027BF
:1052500031464046FFF7AAFF00240CE0144A02EB57
:105260008511095DC943C8B2012100F0B9F8781C65
:10527000C7B2601CC4B2102CF0DB701CC1B2404637
:10528000FFF794FF00240EE06900491C084A02EB76
:105290004111095DC943C8B2012100F0A1F8781C91
:1052A000C7B2601CC4B2102CEEDBBDE8F081000078
:1052B0009C0000202DE9F04107460E46904600254F
:1052C0000024A8F12000C5B27F2F02DD0027B01C0A
:1052D000C6B231463846FFF769FF002408E004EB08
:1052E00005110F4A505C012100F07AF8601CC4B22D
:1052F000082CF4DB701CC1B23846FFF757FF0024BE
:1053000009E004EB05110831054A505C012100F069
:1053100067F8601CC4B2082CF3DBBDE8F081000024
:1053200074AD00082DE9FF5F074691461D460E9EAD
:105330004FF0000A002433E0281B401EC1B20A20AF
:1053400005F020F9B9FBF0F00A21B0FBF1F201FB06
:105350001208BAF1000F13D1681EA04210DDB8F197
:10536000000F0BD1B34606EBDB71491001FB047152
:10537000C8B220220199FFF79DFF0FE04FF0010A0C
:10538000B34606EBDB71491001FB0471C8B208F1AA
:105390003001CAB20199FFF78DFF00BF601CC4B293
:1053A000AC42C9DBBDE8FF9F2DE9F04104460F4642
:1053B000154600260EE0AA5D39462046FFF77AFF23
:1053C00004F10800C4B2782C02DD0024B81CC7B276
:1053D000701CC6B2A85D0028EDD1BDE8F0810000C8
:1053E00070B504460E462EB14FF400511C48FDF72F
:1053F000A8FB04E04FF400511948FDF7A0FB4FF45F
:1054000080411748FDF79BFB00251BE04FF48061AE
:105410001348FDF794FB04F0800028B14FF40061BD
:105420000F48FDF78EFB04E04FF400610C48FDF7D8
:1054300086FB4FF480610A48FDF783FB6006040E8B
:10544000681CC5B2082DE1DB4FF480410448FDF72C
:1054500078FB4FF400510248FDF773FB70BD00006C
:10546000000C014008B54FF4C060FFF7C3FD0720F2
:105470008DF8000003208DF8010000208DF8020057
:1054800001208DF803006846FFF77CFD08BD000091
:105490002DE9FC471F49486800F0BCF91D49086820
:1054A00000F048F81B49886800F022FB1A48007891
:1054B00068B300201849087018498868FBF7D0F8CD
:1054C00004B217480068FBF7CBF805B21349086827
:1054D000FBF7C6F806B213480068FBF7C1F807B23D
:1054E000114912480068FAF797FE8146FBF7B8F8B1
:1054F0000FFA80F80E48CDE90054008800EB8000D8
:10550000400003B232463946404605F0F3F8BDE8A4
:10551000FC870000402100204A00002034210020A8
:10552000FC0C00200C0D002000002041080D002084
:10553000F40C00202DE9F04704469148B0F9000032
:10554000FBF770F807468F4A8F4BFAF77CFF05464A
:10555000FBF71AF981462146FAF706FE04468B4905
:105560002046FBF737F908D2884C0120884908709B
:1055700088A206211020FFF717FF88492046FBF775
:105580001FF908D2854C01208149087081A20621AB
:105590001020FFF709FF8248007860B100208049A1
:1055A0000870804908608049886080498860486048
:1055B00008607F4908607C4A91685068FAF7D4FD1A
:1055C0007949886008460068486084F0004079495D
:1055D000086008460068744908608868FBF791F81D
:1055E00005460022744BFBF7B7F802D273486E49A8
:1055F00088606D498868FBF784F805460022704B87
:10560000FBF792F802D26F486749886066480068E5
:105610006D490860644A51681068FAF7A5FD0546AF
:10562000614881682846FAF79FFD684908605E4A2C
:1056300051681068FAF7EAFD654908606548016835
:1056400063480068FAF7E8FD0646634801685F486A
:105650000068FAF7E1FD0746604801685A480068AB
:10566000FAF7DAFD80463946FAF77EFD05463146FF
:10567000FAF77AFD4B4908604C4A11689068FAF7CE
:1056800073FD4A4988600846006848605449486884
:1056900003F0BCF90546434801682846FAF7B9FD0E
:1056A0004249086088684549FBF794F802D24348AC
:1056B0003E4988603D4988684249FBF781F802D23B
:1056C00040483A4988603948006846490860374A86
:1056D00091681068FAF748FD43490860334A5168F9
:1056E0001068FAF793FD41490860414801683F4856
:1056F0000068FAF791FD06463E4801683A4800689E
:10570000FAF78AFD07463C48016836480068FAF710
:1057100083FD80463946FAF727FD05463146FAF7FC
:1057200023FD2349086008460068FAF7EAFF0546AA
:105730000022324BFBF710F803D831481C490860AF
:105740000CE01B480068FAF7DCFF054600222D4BF1
:10575000FAF7EAFF02D82C48154908601448006897
:10576000FAF7CFFF05460022284BFAF7C5FD07469A
:10577000FAF78FFF00B226490880BDE8F0870000E5
:10578000800B00207B14AE47E17A843F0000B841D3
:10579000800C00204C4F434B000000000000B8C1BB
:1057A000F80C00203C0D0020C4210020D021002056
:1057B000E80C0020100D0020000034400000A04143
:1057C000000034C00000A0C1400D0020480D0020A2
:1057D000440D0020A40C0020A00C00209C0C0020F4
:1057E000342100204C0D0020540D0020500D0020CD
:1057F000B00C0020AC0C0020A80C00200040604041
:1058000000000243004060C0000002C30000E03F0F
:10581000EE0C00202DE9F04704468F48B0F9000057
:10582000FAF700FF07468D4A8D4BFAF70CFE054646
:10583000FAF7AAFF81462146FAF796FC0446894901
:105840002046FAF7C7FF08D2864C01208649087027
:1058500086A206211020FFF7A7FD86492046FAF709
:10586000AFFF08D2834C01207F4908707FA2062138
:105870001020FFF799FD8048007850B100207F4943
:1058800008607F4988607F498860486008607E4979
:1058900008607E4804607A4A91685068FAF764FCB0
:1058A0007749886008460068486084F000400860D6
:1058B00088687749FAF78EFF02D275487049886088
:1058C0006F4988687349FAF77BFF02D271486C49C7
:1058D00088606B48006870490860694A51681068C0
:1058E000FAF742FC0546664881682846FAF73CFC10
:1058F0006A490860624A51681068FAF787FC68498B
:1059000008606848016866480068FAF785FC064642
:105910006548016861480068FAF77EFC07466348FD
:1059200001685D480068FAF777FC80463946FAF767
:105930001BFC05463146FAF717FC50490860514AEE
:1059400011689068FAF710FC4E49886008460068B4
:1059500048605749086803F005F85649086008464A
:10596000016846480068FAF751FC464908608868B3
:10597000FAF7C7FE054600224F4BFAF7EDFE02D2BA
:105980004348404988603F498868FAF7BAFE0546AF
:1059900000224A4BFAF7C8FE02D23E4839498860D5
:1059A0003848006846490860364A91681068FAF736
:1059B000DBFB44490860334A51681068FAF726FC5B
:1059C00041490860414801683F480068FAF724FCF3
:1059D00006463F4801683B480068FAF71DFC074649
:1059E0003C48016836480068FAF716FC804639469C
:1059F000FAF7BAFB05463146FAF7B6FB22490860CA
:105A000008460068FAF77DFE05460022324BFAF799
:105A1000A3FE03D831481C4908600CE01A4800680E
:105A2000FAF76FFE054600222D4BFAF77DFE02D8ED
:105A30002C481549086014480068FAF762FE0546CC
:105A40000022294BFAF758FC0746FAF722FE00B26B
:105A500026490880BDE8F0877E0B00207B14AE4706
:105A6000E17A843F0000B841800C00204C4F434B4A
:105A7000000000000000B8C1F80C0020200D00203C
:105A8000AC210020B8210020E40C0020080D0020EB
:105A90000000A0410000A0C1240D00202C0D00201A
:105AA000280D0020A40C0020A00C00209C0C00203D
:105AB00034210020040D002000003440000034C0D8
:105AC000300D0020380D0020340D0020B00C0020D7
:105AD000AC0C0020A80C00200040604000000243F5
